:020000040800F2
:1000000000280020C50B0008550B00085B0B0008FA
:10001000610B0008670B00086D0B00080000000072
:10002000000000000000000000000000730B00084A
:100030007F0B0008000000008B0B0008970B0008E6
:100040000D0C00080D0C00080D0C00080D0C00082C
:100050000D0C00080D0C00080D0C00080D0C00081C
:100060000D0C00080D0C00080D0C00080D0C00080C
:100070000D0C00080D0C00080D0C00080D0C0008FC
:100080000D0C00080D0C00080D0C00080D0C0008EC
:100090000D0C00080D0C00080D0C00080D0C0008DC
:1000A0000D0C00080D0C00080D0C00080D0C0008CC
:1000B000A50B00080D0C0008000000000D0C000846
:1000C0000D0C000800000000000000000D0C0008EE
:1000D000000000000D0C00080D0C000800000000DE
:1000E0000D0C00080D0C00080D0C000800000000AD
:1000F0000000000000000000000000000000000000
:0C01000000000000000000005FF808F1A3
:10010C0010B5054C237833B9044B13B10448AFF345
:10011C0000800123237010BD1C0000200000000093
:10012C006422000808B5034B1BB103490348AFF325
:10013C00008008BD000000002000002064220008A0
:10014C0080B483B000AF00237B6021E0154A7B684C
:10015C00002142F82310144A7B68012142F8231035
:10016C00124A7B68012142F82310114A7B68012155
:10017C0042F823100F4A7B68012142F823100E4AE3
:10018C007B684FF4967142F823107B6801337B60D7
:10019C007B68022BDADD00BF00BF0C37BD4680BC8C
:1001AC00704700BF94000020700000207C000020ED
:1001BC00A0000020640000208800002080B582B0E0
:1001CC0000AF00237B60B0E07B68022B41D07B68E2
:1001DC00022B5ADC7B68002B03D07B68012B1CD0D4
:1001EC0053E0564A7B6852F8232055497B6841F806
:1001FC002320544A7B6852F8232050497B6841F8ED
:10020C0023204FF40051504800F0E6FF03461946F6
:10021C004C4A7B6842F8231038E0484A7B6852F815
:10022C00232047497B6841F82320464A7B6852F8D3
:10023C00232042497B6841F823204FF480414248F7
:10024C0000F0CAFF034619463E4A7B6842F8231069
:10025C001CE03A4A7B6852F8232039497B6841F804
:10026C002320384A7B6852F8232034497B6841F8B4
:10027C0023204FF40041344800F0AEFF03461946EA
:10028C00304A7B6842F8231000E000BF2B4A7B68A1
:10029C0052F823202B497B6851F823309A4241D1E4
:1002AC00264A7B6852F8232025497B6851F8233075
:1002BC009A4237D1224A7B6852F8232023497B6823
:1002CC0051F823309A4219D01D4A7B6852F82320EA
:1002DC001E497B6841F823201C4A7B6852F8233066
:1002EC00002B1FD11A4A7B684FF4967142F82310E9
:1002FC00184A7B68012142F8231013E0144A7B68EA
:10030C0052F823305A1E12497B6841F82320104AB8
:10031C007B6852F82330002B04D10C4A7B680121F6
:10032C0042F823107B6801337B607B68022B7FF7DC
:10033C004BAF00BF00BF0837BD4680BD7C0000201E
:10034C00A000002070000020000801406400002084
:10035C00880000209400002080B483B000AF786047
:10036C00094A7B6852F82330012B06D1064A7B6878
:10037C00002142F82310012300E0002318460C371B
:10038C00BD4680BC704700BF9400002080B500AF14
:10039C00944B1B68013B042B00F2188101A252F80C
:1003AC0023F000BFC5030008D30300082F04000886
:1003BC00BF0400084D0500088A4B02221A608A4BC4
:1003CC0001221A600BE1894B00221A60874B1B68D3
:1003DC00874AD35C184600F00FF90120FFF7BCFFE9
:1003EC000346012B0BD17F4B03221A607F4B1B68FA
:1003FC0001337E4A136042F6F82000F0ADFA022079
:10040C00FFF7AAFF0346012B40F0E280754B042254
:10041C001A60764B09221A6042F6F82000F09CFA1A
:10042C00D6E0724B1B68092B02DD704B00221A6060
:10043C000120FFF791FF0346012B0FD16B4B1B687B
:10044C0001336A4A1360694B1B68092B02DD674B49
:10045C0000221A6042F6F82000F07EFA634B1B680B
:10046C00634AD35C184600F0C7F80020FFF774FF0E
:10047C000346012B02D15B4B02221A600220FFF7CC
:10048C006BFF0346012B0BD1564B04221A60574BC2
:10049C001B68013B554A136042F6F82000F05CFAE9
:1004AC00544B1B68012B40F095804E4B05221A6073
:1004BC0090E04E4B1B68002B02DA4C4B09221A6061
:1004CC000220FFF749FF0346012B0FD1474B1B6856
:1004DC00013B464A1360454B1B68002B02DA434B29
:1004EC0009221A6042F6F82000F036FA3F4B1B68DE
:1004FC003F4AD35C184600F07FF80020FFF72CFF32
:10050C000346012B02D1374B02221A600120FFF760
:10051C0023FF0346012B0BD1324B03221A60334BC2
:10052C001B680133314A136042F6F82000F014FACC
:10053C00304B1B68012B4FD12A4B05221A604BE024
:10054C00294B1B68012B16D14FF47A7000F020FA5E
:10055C00264B1B68013B254A1360244B1B68002B60
:10056C0002D1204B02221A60204B1B68204AD35C1C
:10057C00184600F041F80120FFF7EEFE0346012B70
:10058C000ED1184B03221A60184B1B680133174A03
:10059C00136042F6F82000F0DFF9134B01221A60C9
:1005AC000220FFF7D9FE0346012B17D10D4B042275
:1005BC001A600E4B1B68013B0C4A136042F6F82084
:1005CC0000F0CAF9084B01221A6007E000BF06E0F0
:1005DC0000BF04E000BF02E000BF00E000BF00BFAE
:1005EC0080BD00BF000000204C000020380000201F
:1005FC00040000204400002080B582B000AF034608
:10060C00FB71FB7903F00103002B0CBF01230023CA
:10061C00DBB21A460121304800F0F5FDFB795B088E
:10062C00DBB203F00103002B0CBF01230023DBB270
:10063C001A460221284800F0E6FDFB799B08DBB244
:10064C0003F00103002B0CBF01230023DBB21A467D
:10065C000421214800F0D7FDFB79DB08DBB203F065
:10066C000103002B0CBF01230023DBB21A46082127
:10067C00194800F0C8FDFB791B09DBB203F001033C
:10068C00002B0CBF01230023DBB21A4610211248A9
:10069C0000F0B9FDFB795B09DBB203F00103002B21
:1006AC000CBF01230023DBB21A4620210A4800F0BC
:1006BC00AAFDFB799B09DBB203F00103002B0CBFF5
:1006CC0001230023DBB21A464021034800F09BFDB6
:1006DC0000BF0837BD4680BD000C014080B500AF9F
:1006EC0000F090FA00F022F800F0A8F800F05AF8A8
:1006FC000B4801F0F1F9FFF723FD0A4B01221A60B8
:10070C00FFF744FE074B1B68012BF9D14FF47A70AD
:10071C0000F006F92021044800F08DFDF0E700BF41
:10072C00AC0000203C0000200008014080B590B0D7
:10073C0000AF07F1180328220021184601F084FDB0
:10074C003B1D00221A605A609A60DA601A6102231B
:10075C00BB610123BB621023FB6200237B6307F1A7
:10076C001803184600F080FD0346002B01D000F062
:10077C00D1F80F237B600023BB600023FB600023B8
:10078C003B6100237B613B1D0021184600F0ECFF10
:10079C000346002B01D000F0BDF800BF4037BD462A
:1007AC0080BD000080B586B000AF07F108030022C1
:1007BC001A605A609A60DA603B4600221A605A60EE
:1007CC001D4B4FF080421A601B4B41F63F725A6032
:1007DC00194B00229A60184B0A22DA60164B002241
:1007EC001A61154B00229A61134801F025F9034652
:1007FC00002B01D000F08EF84FF48053BB6007F152
:10080C00080319460C4801F0BBFA0346002B01D033
:10081C0000F080F800233B6000237B603B461946C8
:10082C00054801F083FC0346002B01D000F072F860
:10083C0000BF1837BD4680BDAC00002080B586B027
:10084C0000AF07F1080300221A605A609A60DA6060
:10085C00274B9B69264A43F004039361244B9B6905
:10086C0003F004037B607B68214B9B69204A43F0B7
:10087C00080393611E4B9B6903F008033B603B68C4
:10088C00002220211B4800F0BEFC00227F211A48C8
:10089C0000F0B9FC2023BB600123FB6000233B610B
:1008AC0002237B6107F108031946124800F01AFB7A
:1008BC007F23BB600123FB6000233B6102237B6130
:1008CC0007F1080319460C4800F00CFB4FF4604389
:1008DC00BB600023FB6001233B6107F10803194651
:1008EC00044800F0FFFA00BF1837BD4680BD00BFBA
:1008FC000010024000080140000C014080B582B09D
:10090C0000AF7860FFF75AFC00F05EF800BF0837C4
:10091C00BD4680BD80B400AF72B600BFFEE70000DC
:10092C0080B483B000AF78607B68084A82FB031206
:10093C009210DB17D31A064A1360064B00221A607A
:10094C0000BF0C37BD4680BC704700BF676666664B
:10095C00400000203C00002080B483B000AF7860E1
:10096C007B68084A82FB03129210DB17D31A064AE3
:10097C001360064B00221A6000BF0C37BD4680BCCA
:10098C00704700BF67666666480000204400002080
:10099C0080B483B000AF78607B68084A82FB031296
:1009AC009210DB17D31A064A1360064B00221A600A
:1009BC0000BF0C37BD4680BC704700BF67666666DB
:1009CC00500000204C00002080B400AF294B1B6865
:1009DC00002B0BDD274B1B68013B264A1360254B74
:1009EC001B68002B02DC244B01221A60234B1B6872
:1009FC00002B0BDD214B1B68013B204A13601F4B66
:100A0C001B68002B02DC1E4B01221A601D4B1B685D
:100A1C00002B0BDD1B4B1B68013B1A4A1360194B57
:100A2C001B68002B02DC184B01221A60174B1B6849
:100A3C00002B0BDD154B1B68013B144A1360134B49
:100A4C001B68002B02DC124B01221A60114B1B6835
:100A5C00002B0BDD0F4B1B68013B0E4A13600D4B3B
:100A6C001B68002B02DC0C4B01221A6000BFBD4638
:100A7C0080BC7047400000203C0000204800002053
:100A8C0044000020500000204C00002058000020A2
:100A9C0054000020600000205C00002080B485B071
:100AAC0000AF154B9B69144A43F001039361124B41
:100ABC009B6903F00103BB60BB680F4BDB690E4AFB
:100ACC0043F08053D3610C4BDB6903F080537B60A4
:100ADC007B680A4B5B68FB60FB6823F0E063FB60A0
:100AEC00FB6843F08063FB60044AFB68536000BF03
:100AFC001437BD4680BC7047001002400000014016
:100B0C0080B584B000AF78607B681B68B3F1804F10
:100B1C0013D10C4BDB690B4A43F00103D361094B36
:100B2C00DB6903F00103FB60FB68002200211C2041
:100B3C0000F0A1F91C2000F0BAF900BF1037BD4637
:100B4C0080BD00BF0010024080B400AFFEE780B44F
:100B5C0000AFFEE780B400AFFEE780B400AFFEE765
:100B6C0080B400AFFEE780B400AF00BFBD4680BCD0
:100B7C00704780B400AF00BFBD4680BC704780B4E6
:100B8C0000AF00BFBD4680BC704780B500AF00F021
:100B9C007FF800BF80BD000080B500AF024800F0B8
:100BAC00E7FF00BF80BD00BFAC00002080B400AFE9
:100BBC0000BFBD4680BC70470C480D490D4A002350
:100BCC0002E0D458C4500433C4188C42F9D30A4AF6
:100BDC000A4C002301E013600432A242FBD3FFF75E
:100BEC00E5FF01F00DFBFFF779FD704700000020D9
:100BFC001C000020A42200081C000020F80000208B
:100C0C00FEE7000080B500AF084B1B68074A43F0B5
:100C1C0010031360032000F023F90F2000F008F8F4
:100C2C00FFF73CFF0023184680BD00BF00200240A8
:100C3C0080B582B000AF7860124B1A68124B1B78EB
:100C4C0019464FF47A73B3FBF1F3B2FBF3F3184686
:100C5C0000F03BF90346002B01D001230EE07B682A
:100C6C000F2B0AD8002279684FF0FF3000F003F9FF
:100C7C00064A7B681360002300E0012318460837FE
:100C8C00BD4680BD1000002018000020140000207C
:100C9C0080B400AF054B1B781A46054B1B681344F8
:100CAC00034A136000BFBD4680BC7047180000208B
:100CBC00F400002080B400AF024B1B681846BD4600
:100CCC0080BC7047F400002080B485B000AF786021
:100CDC007B6803F00703FB600C4BDB68BB60BA68F6
:100CEC004FF6FF031340BB60FB681A02BB6813434B
:100CFC0043F0BF6343F40033BB60044ABB68D3606A
:100D0C0000BF1437BD4680BC704700BF00ED00E04B
:100D1C0080B400AF044BDB681B0A03F007031846D2
:100D2C00BD4680BC704700BF00ED00E080B483B0CE
:100D3C0000AF0346FB7197F90730002B0BDBFB79F7
:100D4C0003F01F02064997F907305B09012000FAEE
:100D5C0002F241F8232000BF0C37BD4680BC70471F
:100D6C0000E100E080B483B000AF03463960FB7152
:100D7C0097F90730002B0ADB3B68DAB20C4997F97C
:100D8C0007301201D2B20B4483F800230AE03B680F
:100D9C00DAB20849FB7903F00F03043B1201D2B21B
:100DAC000B441A7600BF0C37BD4680BC704700BFA1
:100DBC0000E100E000ED00E080B489B000AFF86025
:100DCC00B9607A60FB6803F00703FB61FB69C3F150
:100DDC000703042B28BF0423BB61FB690433062BD8
:100DEC0002D9FB69033B00E000237B614FF0FF322B
:100DFC00BB6902FA03F3DA43BB681A407B699A4079
:100E0C004FF0FF317B6901FA03F3D9437B680B4048
:100E1C00134318462437BD4680BC704780B582B05A
:100E2C0000AF78607B68013BB3F1807F01D3012375
:100E3C000FE00A4A7B68013B53600F214FF0FF30F3
:100E4C00FFF790FF054B00229A60044B07221A60B3
:100E5C00002318460837BD4680BD00BF10E000E0F7
:100E6C0080B582B000AF78607868FFF72DFF00BFC7
:100E7C000837BD4680BD80B586B000AF0346B9606B
:100E8C007A60FB7300237B61FFF742FF78617A681D
:100E9C00B9687869FFF790FF024697F90F30114651
:100EAC001846FFF75FFF00BF1837BD4680BD80B501
:100EBC0082B000AF0346FB7197F907301846FFF775
:100ECC0035FF00BF0837BD4680BD80B582B000AF8E
:100EDC0078607868FFF7A2FF034618460837BD46CE
:100EEC0080BD000080B48BB000AF78603960002307
:100EFC007B6200233B6248E101227B6A02FA03F326
:100F0C00FB613B681B68FA691340BB61BA69FB69FA
:100F1C009A4240F037813B685B68A34A93425ED0AB
:100F2C00A14A934275D8A14A934258D09F4A934202
:100F3C006FD89F4A934252D09D4A934269D89D4A9A
:100F4C0093424CD09B4A934263D89B4A934246D0DF
:100F5C00994A93425DD8122B2AD8122B59D801A248
:100F6C0052F823F0EB0F0008C50F0008D70F00084C
:100F7C00191000081F1000081F1000081F1000088F
:100F8C001F1000081F1000081F1000081F10000879
:100F9C001F1000081F1000081F1000081F10000869
:100FAC001F1000081F100008CD0F0008E10F0008EB
:100FBC00824A934213D02CE03B68DB683B6229E009
:100FCC003B68DB6804333B6224E03B68DB68083336
:100FDC003B621FE03B68DB680C333B621AE03B680A
:100FEC009B68002B02D104233B6213E03B689B6897
:100FFC00012B05D108233B627B68FA691A6109E071
:10100C0008233B627B68FA695A6103E000233B6268
:10101C0000E000BFBB69FF2B01D87B6801E07B6857
:10102C0004337B61BB69FF2B02D87B6A9B0002E017
:10103C007B6A083B9B003B617B691A680F213B690B
:10104C0001FA03F3DB431A40396A3B6901FA03F3F3
:10105C001A437B691A603B685B6803F08053002B72
:10106C0000F09080564B9B69554A43F00103936105
:10107C00534B9B6903F00103BB60BB68514A7B6A0D
:10108C009B08023352F82330FB607B6A03F00303A6
:10109C009B000F2202FA03F3DB43FA681340FB6058
:1010AC007B68494A93420DD07B68484A934207D0EB
:1010BC007B68474A934201D1022304E0032302E0F8
:1010CC00012300E000237A6A02F0030292009340AD
:1010DC00FA681343FB603B497B6A9B080233FA684E
:1010EC0041F823203B685B6803F48033002B06D067
:1010FC00384B1A683749BB6913430B6006E0354B14
:10110C001A68BB69DB43334913400B603B685B686F
:10111C0003F40033002B06D02E4B5A682D49BB69C3
:10112C0013434B6006E02B4B5A68BB69DB432949E0
:10113C0013404B603B685B6803F48013002B06D0B4
:10114C00244B9A682349BB6913438B6006E0214BFF
:10115C009A68BB69DB431F4913408B603B685B6833
:10116C0003F40013002B06D01A4BDA681949BB693B
:10117C001343CB6006E0174BDA68BB69DB431549B8
:10118C001340CB607B6A01337B623B681A687B6AD5
:10119C0022FA03F3002B7FF4AFAE00BF00BF2C3755
:1011AC00BD4680BC704700BF0000321000003110FB
:1011BC00000022100000211000001210000011107D
:1011CC00001002400000014000080140000C0140EA
:1011DC00001001400004014080B485B000AF78607D
:1011EC000B467B807B689A687B881340002B02D06F
:1011FC000123FB7301E00023FB73FB7B18461437C0
:10120C00BD4680BC704780B483B000AF78600B469D
:10121C007B8013467B707B78002B03D07A887B68AD
:10122C001A6103E07B881A047B681A6100BF0C37D3
:10123C00BD4680BC704780B485B000AF78600B466B
:10124C007B807B68DB68FB607A88FB6813401A0440
:10125C00FB68D9437B880B401A437B681A6100BF3B
:10126C001437BD4680BC704780B586B000AF78603F
:10127C007B68002B01D101236CE27B681B6803F0B7
:10128C000103002B00F08780924B5B6803F00C038A
:10129C00042B0CD08F4B5B6803F00C03082B12D182
:1012AC008C4B5B6803F48033B3F5803F0BD1894BD7
:1012BC001B6803F40033002B6CD07B685B68002B3D
:1012CC0068D1012346E27B685B68B3F5803F06D1A9
:1012DC00804B1B687F4A43F4803313602EE07B689D
:1012EC005B68002B0CD17B4B1B687A4A23F4803350
:1012FC001360784B1B68774A23F4802313601DE03E
:10130C007B685B68B3F5A02F0CD1724B1B68714ADC
:10131C0043F4802313606F4B1B686E4A43F4803395
:10132C0013600BE06B4B1B686A4A23F48033136029
:10133C00684B1B68674A23F4802313607B685B68E7
:10134C00002B13D0FFF7B6FC386108E0FFF7B2FCB6
:10135C0002463B69D31A642B01D90323FAE15D4B96
:10136C001B6803F40033002BF0D014E0FFF7A2FC51
:10137C00386108E0FFF79EFC02463B69D31A642BE8
:10138C0001D90323E6E1534B1B6803F40033002B14
:10139C00F0D100E000BF7B681B6803F00203002B58
:1013AC0063D04C4B5B6803F00C03002B0BD0494B08
:1013BC005B6803F00C03082B1CD1464B5B6803F4F1
:1013CC008033002B16D1434B1B6803F00203002B18
:1013DC0005D07B681B69012B01D00123BAE13D4B81
:1013EC001B6823F0F8027B685B69DB003949134307
:1013FC000B603AE07B681B69002B20D0364B012236
:10140C001A60FFF757FC386108E0FFF753FC0246FF
:10141C003B69D31A022B01D903239BE12D4B1B688B
:10142C0003F00203002BF0D02A4B1B6823F0F802C8
:10143C007B685B69DB00274913430B6015E0264B87
:10144C0000221A60FFF736FC386108E0FFF732FC27
:10145C0002463B69D31A022B01D903237AE11D4BB7
:10146C001B6803F00203002BF0D17B681B6803F0B0
:10147C000803002B3AD07B689B69002B19D0174BC3
:10148C0001221A60FFF716FC386108E0FFF712FC26
:10149C0002463B69D31A022B01D903235AE10D4BA7
:1014AC005B6A03F00203002BF0D0012000F0A6FAD7
:1014BC001CE00A4B00221A60FFF7FCFB38610FE0BE
:1014CC00FFF7F8FB02463B69D31A022B08D903231A
:1014DC0040E100BF00100240000042428004424242
:1014EC009E4B5B6A03F00203002BE9D17B681B68FF
:1014FC0003F00403002B00F0A6800023FB75974B30
:10150C00DB6903F08053002B0DD1944BDB69934ABC
:10151C0043F08053D361914BDB6903F08053BB6084
:10152C00BB680123FB758E4B1B6803F48073002B87
:10153C0018D18B4B1B688A4A43F480731360FFF7F6
:10154C00B9FB386108E0FFF7B5FB02463B69D31ADB
:10155C00642B01D90323FDE0814B1B6803F48073DA
:10156C00002BF0D07B68DB68012B06D17B4B1B6A10
:10157C007A4A43F0010313622DE07B68DB68002B91
:10158C000CD1764B1B6A754A23F001031362734B23
:10159C001B6A724A23F0040313621CE07B68DB684D
:1015AC00052B0CD16D4B1B6A6C4A43F00403136280
:1015BC006A4B1B6A694A43F0010313620BE0674BE9
:1015CC001B6A664A23F001031362644B1B6A634A6D
:1015DC0023F0040313627B68DB68002B15D0FFF744
:1015EC0069FB38610AE0FFF765FB02463B69D31AD9
:1015FC0041F28832934201D90323ABE0574B1B6A6B
:10160C0003F00203002BEED014E0FFF753FB38611C
:10161C000AE0FFF74FFB02463B69D31A41F28832CE
:10162C00934201D9032395E04C4B1B6A03F0020350
:10163C00002BEED1FB7D012B05D1484BDB69474AD2
:10164C0023F08053D3617B68DB69002B00F0818031
:10165C00424B5B6803F00C03082B61D07B68DB69A1
:10166C00022B46D13F4B00221A60FFF723FB386157
:10167C0008E0FFF71FFB02463B69D31A022B01D986
:10168C00032367E0354B1B6803F00073002BF0D18C
:10169C007B681B6AB3F5803F08D1304B5B6823F441
:1016AC0000327B689B682D4913434B602B4B5B6866
:1016BC0023F474127B68196A7B685B6A0B432749B5
:1016CC0013434B60274B01221A60FFF7F3FA386182
:1016DC0008E0FFF7EFFA02463B69D31A022B01D957
:1016EC00032337E01D4B1B6803F00073002BF0D075
:1016FC002FE01C4B00221A60FFF7DCFA386108E07F
:10170C00FFF7D8FA02463B69D31A022B01D90323FF
:10171C0020E0124B1B6803F00073002BF0D118E093
:10172C007B68DB69012B01D1012313E00B4B5B6858
:10173C00FB60FB6803F480327B681B6A9A4206D11B
:10174C00FB6803F470127B685B6A9A4201D0012338
:10175C0000E0002318461837BD4680BD001002403B
:10176C00007000406000424280B584B000AF7860E9
:10177C0039607B68002B01D10123D0E06A4B1B68D8
:10178C0003F007033A689A4210D9674B1B6823F0A1
:10179C00070265493B6813430B60634B1B6803F0FE
:1017AC0007033A689A4201D00123B8E07B681B68B2
:1017BC0003F00203002B20D07B681B6803F00403AA
:1017CC00002B05D0594B5B68584A43F4E0635360D7
:1017DC007B681B6803F00803002B05D0534B5B6838
:1017EC00524A43F460535360504B5B6823F0F00251
:1017FC007B689B684D4913434B607B681B6803F007
:10180C000103002B40D07B685B68012B07D1474B51
:10181C001B6803F40033002B15D101237FE07B6898
:10182C005B68022B07D1414B1B6803F00073002B44
:10183C0009D1012373E03D4B1B6803F00203002B1D
:10184C0001D101236BE0394B5B6823F003027B6809
:10185C005B68364913434B60FFF72CFAF8600AE0DB
:10186C00FFF728FA0246FB68D31A41F288329342FA
:10187C0001D9032353E02D4B5B6803F00C027B680A
:10188C005B689B009A42EBD1274B1B6803F0070364
:10189C003A689A4210D2244B1B6823F00702224963
:1018AC003B6813430B60204B1B6803F007033A683B
:1018BC009A4201D0012332E07B681B6803F00403D9
:1018CC00002B08D0194B5B6823F4E0627B68DB6863
:1018DC00164913434B607B681B6803F00803002B0D
:1018EC0009D0124B5B6823F460527B681B69DB00E8
:1018FC000E4913434B6000F021F802460B4B5B681A
:10190C001B0903F00F030A49CB5C22FA03F3094AC3
:10191C001360094B1B681846FFF78AF90023184619
:10192C001037BD4680BD00BF0020024000100240B1
:10193C008C220008100000201400002090B48AB003
:10194C0000AF2A4B3C1D0FCB84E80F0040F2012363
:10195C003B800023FB610023BB6100237B620023DF
:10196C007B6100233B62224B5B68FB61FB6903F0EC
:10197C000C03042B02D0082B03D02DE01D4B3B6233
:10198C002DE0FB699B0C03F00F0307F128021344B5
:10199C0013F8243C7B61FB6903F48033002B13D0D8
:1019AC00134B5B685B0C03F0010307F12802134433
:1019BC0013F8283CBB617B690E4A02FB03F2BB693E
:1019CC00B2FBF3F37B6204E07B690B4A02FB03F38B
:1019DC007B627B6A3B6202E0064B3B6200BF3B6A68
:1019EC0018462837BD4690BC704700BF7C220008C3
:1019FC000010024000127A0000093D0080B485B04E
:101A0C0000AF78600A4B1B680A4AA2FB03235B0AEF
:101A1C007A6802FB03F3FB6000BFFB685A1EFA6096
:101A2C00002BF9D100BF00BF1437BD4680BC7047F6
:101A3C0010000020D34D621080B582B000AF7860EA
:101A4C007B68002B01D1012341E07B6893F83D308A
:101A5C00DBB2002B06D17B68002283F83C2078682F
:101A6C00FFF74EF87B68022283F83D207B681A68EA
:101A7C007B6804331946104600F06AFA7B68012231
:101A8C0083F846207B68012283F83E207B68012284
:101A9C0083F83F207B68012283F840207B68012279
:101AAC0083F841207B68012283F842207B68012265
:101ABC0083F843207B68012283F844207B68012251
:101ACC0083F845207B68012283F83D2000231846CB
:101ADC000837BD4680BD000080B485B000AF78608B
:101AEC007B6893F83D30DBB2012B01D0012335E04C
:101AFC007B68022283F83D207B681B68DA687B6870
:101B0C001B6842F00102DA607B681B68164A93423C
:101B1C0009D07B681B68B3F1804F04D07B681B68CD
:101B2C00124A934211D17B681B689B6803F0070330
:101B3C00FB60FB68062B10D07B681B681A687B68FF
:101B4C001B6842F001021A6007E07B681B681A6888
:101B5C007B681B6842F001021A6000231846143798
:101B6C00BD4680BC704700BF002C01400004004003
:101B7C0080B582B000AF78607B681B681B6903F08E
:101B8C000203022B22D17B681B68DB6803F0020383
:101B9C00022B1BD17B681B686FF002021A617B68F9
:101BAC0001221A777B681B689B6903F00303002BE7
:101BBC0003D0786800F0B1F905E0786800F0A4F97A
:101BCC00786800F0B3F97B6800221A777B681B6891
:101BDC001B6903F00403042B22D17B681B68DB68B0
:101BEC0003F00403042B1BD17B681B686FF0040209
:101BFC001A617B6802221A777B681B689B6903F465
:101C0C004073002B03D0786800F087F905E0786802
:101C1C0000F07AF9786800F089F97B6800221A776D
:101C2C007B681B681B6903F00803082B22D17B68B7
:101C3C001B68DB6803F00803082B1BD17B681B684F
:101C4C006FF008021A617B6804221A777B681B68A4
:101C5C00DB6903F00303002B03D0786800F05DF917
:101C6C0005E0786800F050F9786800F05FF97B685F
:101C7C0000221A777B681B681B6903F01003102B7A
:101C8C0022D17B681B68DB6803F01003102B1BD17F
:101C9C007B681B686FF010021A617B6808221A7748
:101CAC007B681B68DB6903F44073002B03D07868F6
:101CBC0000F033F905E0786800F026F9786800F058
:101CCC0035F97B6800221A777B681B681B6903F067
:101CDC000103012B0ED17B681B68DB6803F0010349
:101CEC00012B07D17B681B686FF001021A617868C1
:101CFC00FEF704FE7B681B681B6903F08003802BD6
:101D0C000ED17B681B68DB6803F08003802B07D146
:101D1C007B681B686FF080021A61786800F067FAC4
:101D2C007B681B681B6903F04003402B0ED17B685A
:101D3C001B68DB6803F04003402B07D17B681B68F2
:101D4C006FF040021A61786800F0F9F87B681B6844
:101D5C001B6903F02003202B0ED17B681B68DB680A
:101D6C0003F02003202B07D17B681B686FF0200247
:101D7C001A61786800F032FA00BF0837BD4680BDA2
:101D8C0080B584B000AF786039607B6893F83C30E4
:101D9C00012B01D10223B3E07B68012283F83C20A4
:101DAC007B68022283F83D207B681B689B68FB6084
:101DBC00FB6823F07703FB60FB6823F47F43FB6035
:101DCC007B681B68FA689A603B681B68B3F5005F18
:101DDC003ED0B3F5005F00F28780B3F5805F00F072
:101DEC008580B3F5805F7FD8702B1AD0702B7BD891
:101DFC00602B50D0602B77D8502B3CD0502B73D805
:101E0C00402B58D0402B6FD8302B64D0302B6BD854
:101E1C00202B60D0202B67D8002B5CD0102B5AD0F5
:101E2C0062E07B6818683B6899683B685A683B6855
:101E3C00DB6800F05CF97B681B689B68FB60FB68E7
:101E4C0043F07703FB607B681B68FA689A604EE08E
:101E5C007B6818683B6899683B685A683B68DB6824
:101E6C0000F045F97B681B689A687B681B6842F434
:101E7C0080429A603BE07B6818683B6859683B6815
:101E8C00DB681A4600F0BCF87B681B6850211846CA
:101E9C0000F013F92BE07B6818683B6859683B68C5
:101EAC00DB681A4600F0DAF87B681B68602118467C
:101EBC0000F003F91BE07B6818683B6859683B68C5
:101ECC00DB681A4600F09CF87B681B6840211846BA
:101EDC0000F0F3F80BE07B681A683B681B68194646
:101EEC00104600F0EAF802E000BF00E000BF7B689B
:101EFC00012283F83D207B68002283F83C200023DC
:101F0C0018461037BD4680BD80B483B000AF7860F2
:101F1C0000BF0C37BD4680BC704780B483B000AFA7
:101F2C00786000BF0C37BD4680BC704780B483B06E
:101F3C0000AF786000BF0C37BD4680BC704780B4E2
:101F4C0083B000AF786000BF0C37BD4680BC7047D3
:101F5C0080B485B000AF786039607B681B68FB602B
:101F6C007B68254A934207D07B68B3F1804F03D03E
:101F7C007B68224A934208D1FB6823F07003FB6014
:101F8C003B685B68FA681343FB607B681A4A9342B0
:101F9C0007D07B68B3F1804F03D07B68174A93421C
:101FAC0008D1FB6823F44073FB603B68DB68FA687C
:101FBC001343FB60FB6823F080023B685B691343AF
:101FCC00FB607B68FA681A603B689A687B68DA6227
:101FDC003B681A687B689A627B68074A934203D114
:101FEC003B681A697B681A637B6801225A6100BFDF
:101FFC001437BD4680BC7047002C014000040040E3
:10200C0080B487B000AFF860B9607A60FB681B6A77
:10201C007B61FB681B6A23F00102FB681A62FB6898
:10202C009B693B613B6923F0F0033B617B681B01BF
:10203C003A6913433B617B6923F00A037B617A693C
:10204C00BB6813437B61FB683A699A61FB687A69E8
:10205C001A6200BF1C37BD4680BC704780B487B085
:10206C0000AFF860B9607A60FB681B6A23F010025D
:10207C00FB681A62FB689B697B61FB681B6A3B61AE
:10208C007B6923F470437B617B681B037A69134380
:10209C007B613B6923F0A0033B61BB681B013A6980
:1020AC0013433B61FB687A699A61FB683A691A626F
:1020BC0000BF1C37BD4680BC704780B485B000AFF4
:1020CC00786039607B689B68FB60FB6823F0700369
:1020DC00FB603A68FB68134343F00703FB607B68C3
:1020EC00FA689A6000BF1437BD4680BC704780B454
:1020FC0087B000AFF860B9607A603B60FB689B68A2
:10210C007B617B6923F47F437B613B681A027B68AC
:10211C001A43BB6813437A6913437B61FB687A6982
:10212C009A6000BF1C37BD4680BC704780B485B038
:10213C0000AF786039607B6893F83C30012B01D19B
:10214C00022341E07B68012283F83C207B68022259
:10215C0083F83D207B681B685B68FB607B681B68B1
:10216C009B68BB60FB6823F07003FB603B681B68DB
:10217C00FA681343FB607B681B68FA685A607B68DB
:10218C001B68144A934209D07B681B68B3F1804FDB
:10219C0004D07B681B68104A93420CD1BB6823F0B7
:1021AC008003BB603B685B68BA681343BB607B68A9
:1021BC001B68BA689A607B68012283F83D207B68B3
:1021CC00002283F83C20002318461437BD4680BCFF
:1021DC00704700BF002C01400004004080B483B065
:1021EC0000AF786000BF0C37BD4680BC704780B430
:1021FC0083B000AF786000BF0C37BD4680BC704721
:10220C0070B500260C4D0D4C641BA410A64209D1D0
:10221C0000F022F800260A4D0A4C641BA410A642BA
:10222C0005D170BD55F8043B98470136EEE755F8DB
:10223C00043B98470136F2E79C2200089C220008D8
:10224C009C220008A022000803460244934200D1BD
:10225C00704703F8011BF9E7F8B500BFF8BC08BCE0
:10226C009E467047F8B500BFF8BC08BC9E46704748
:10227C0002030405060708090A0B0C0D0E0F1010BB
:10228C00000000000000000001020304060708091A
:04229C003101000804
:0422A0000D01000824
:1022A400010000003F065B4F666D7D077F670000FD
:0C22B4000024F4001000000001000000F5
:0400000508000BC51F
:00000001FF
